:020000040800F2
:10000000280B002029020008C3040008BB040008D4
:10001000BF040008D9020008BB0F00080000000060
:10002000000000000000000000000000BD06000805
:10003000DD0200080000000051050008D507000897
:10004000430200084302000843020008430200087C
:10005000430200084302000843020008430200086C
:10006000430200084302000843020008430200085C
:10007000430200084302000843020008430200084C
:10008000430200084302000843020008430200083C
:10009000430200084302000843020008430200082C
:1000A000430200084302000843020008430200081C
:1000B00043020008F1080008430200084302000858
:1000C00043020008430200084302000843020008FC
:1000D00043020008ED0B0008430200086D0C000805
:1000E00043020008430200084302000843020008DC
:1000F00043020008430200084302000843020008CC
:1001000043020008430200084302000843020008BB
:100110004302000843020008430200088109000866
:10012000430200084302000843020008430200089B
:10013000430200084302000843020008430200088B
:10014000430200084302000843020008430200087B
:10015000430200084302000843020008430200086B
:10016000430200084302000843020008430200085B
:10017000430200084302000843020008430200084B
:10018000430200084302000800F002F800F03CF8C7
:100190000AA090E8000C82448344AAF10107DA45E2
:1001A00001D100F031F8AFF2090EBAE80F0013F0F8
:1001B000010F18BFFB1A43F001031847601100003C
:1001C00080110000103A24BF78C878C1FAD85207CD
:1001D00024BF30C830C144BF04680C6070470000C1
:1001E0000023002400250026103A28BF78C1FBD840
:1001F000520728BF30C148BF0B6070471FB501F0E0
:1002000087F81FBD10B510BD00F033F81146FFF799
:10021000F5FF00F0F5FF00F051F803B4FFF7F2FF2F
:1002200003BC00F0CCFE00000948804709480047A5
:10023000FEE7FEE7FEE7FEE7FEE7FEE7FEE7FEE796
:10024000FEE7FEE704480549054A064B70470000F3
:10025000D90700088901000828050020280B002084
:100260002807002028070020704770477047704714
:100270007047754600F02CF8AE46050069465346B7
:1002800020F00700854618B020B5FFF7DBFFBDE87A
:1002900020404FF000064FF000074FF000084FF0ED
:1002A000000B21F00701AC46ACE8C009ACE8C0097E
:1002B000ACE8C009ACE8C0098D46704710B50446EB
:1002C000AFF300802046BDE81040FFF7A6BF000056
:1002D00000487047C804002000BFFEE770470000D8
:1002E00010B58AB0044606A800F05BFE012110207C
:1002F00000F050F90121084600F02CF925208DF876
:100300000C0001208DF80D0000208DF80E0001205A
:100310008DF80F0003A800F0D5F8072209212E4818
:1003200000F0A6F807220A212B4800F0A1F84FF4AC
:100330000070019002208DF808008DF8090000205F
:100340008DF80A0001208DF80B0001A9224800F069
:1003500047F84FF48060019002208DF808008DF876
:10036000090001208DF80A0000208DF80B0001A97A
:10037000194800F035F8194800F0DCFC069400201C
:10038000ADF81C00ADF81E00ADF82000ADF824005B
:100390000C20ADF822000020ADF81000ADF81200DE
:1003A0004FF40070ADF814000020ADF8160006A957
:1003B0000A4800F087FD04A9084800F09EFC0122CD
:1003C00040F22551054800F057FD0121034800F097
:1003D000A4FC0AB010BD0000000002400010014063
:1003E000F0B50A4600210023002400BF3DE00125AE
:1003F00005FA01F3156805EA03049C4234D1056847
:100400004F000326BE40B543056015794E00B54048
:100410000668354305601579012D02D01579022D46
:1004200016D185684F000326BE40B54385605579D7
:100430004E00B540866835438560456801268E408C
:10044000B5434560456896798E40B6B23543456000
:10045000C5684F000326BE40B543C560D5794E0040
:10046000B540C6683543C560491C1029BFD3F0BDEF
:10047000F0B5002300244D07ED0E02FA05F3CE106F
:1004800000F1200555F826504E07F70E0F26BE4006
:10049000B543CF1000F1200646F82750CE1000F1EA
:1004A000200555F8265045EA0304CE1000F120053A
:1004B00045F82640F0BD0183704700BFFEE700BF4E
:1004C000FEE7704770B5002100230F22C4781CB3EB
:1004D000174C246804F4E064C4F5E064C4F3072115
:1004E000C1F10404E3B20A4144789C40E1B284784B
:1004F000144021430C07210E0E4C057861550478F9
:1005000004F01F050124AC4005786D11AD0005F124
:10051000E025C5F8004109E0047804F01F05012436
:10052000AC40054D0678761145F8264070BD0000B8
:100530000CED00E000E400E080E100E0024901434E
:10054000024A1160704700000000FA050CED00E05F
:100550007047000029B1064A12680243044B1A6032
:1005600004E0034A12688243014B1A60704700009E
:100570003038024029B1064A12680243044B1A601F
:1005800004E0034A12688243014B1A60704700007E
:100590002038024029B1064A12680243044B1A600F
:1005A00004E0034A12688243014B1A60704700005E
:1005B0004438024029B1064A12680243044B1A60CB
:1005C00004E0034A12688243014B1A60704700003E
:1005D00024380240F0B50021002200240225002624
:1005E0000223324F3F6807F00C0121B1042905D0E6
:1005F000082937D105E02E4F076036E02D4F076000
:1006000033E02A4F3F1F3F68C7F38056274F3F1FF5
:100610003F6807F03F036EB1264FB7FBF3F7DFF8F3
:100620008CC0ACF1040CDCF800C0CCF3881C07FBD8
:100630000CF40CE01E4FB7FBF3F7DFF870C0ACF121
:10064000040CDCF800C0CCF3881C07FB0CF4174F3B
:100650003F1F3F68C7F301477F1C7D00B4FBF5F7E0
:10066000076002E0124F076000BF00BF0F4F3F68F6
:1006700007F0F0010909104F7A5C0768D74047601E
:100680000A4F3F6807F4E051890A0B4F7A5C4768CC
:10069000D7408760054F3F6807F46041490B064F1C
:1006A0007A5C4768D740C760F0BD00000838024058
:1006B0000024F40000127A0022000020704700009D
:1006C0000CB50020019000903448006840F4803060
:1006D0003249086000BF3148006800F400300090E3
:1006E0000198401C0190009818B90198B0F5A04FEE
:1006F000F1D12A48006800F4003010B101200090C8
:1007000001E0002000900098012846D123484030A5
:10071000006840F08050214940310860204800685E
:1007200040F440401E4908601C48083000681B49DE
:10073000083108600846006840F400400860084638
:10074000006840F4A05008601648091F0860081FA0
:10075000006840F08070091F086000BF0F48006803
:1007600000F000700028F9D040F205700E490860D2
:100770000A480830006820F0030008490831086082
:100780000846006840F00200086000BF03480830D7
:10079000006800F00C000828F8D10CBD00380240B9
:1007A0000070004008544007003C0240042808D173
:1007B0004FF0E021096941F004014FF0E02211619E
:1007C00007E04FF0E021096921F004014FF0E02239
:1007D000116170477047000010B51548006840F47B
:1007E0007000134908601348006840F00100114987
:1007F000086000200F49083108600E4800680E4963
:1008000008400C4908600D48091D0860081F006871
:1008100020F48020091F0860002006490C31086080
:10082000FFF74EFF4FF0006001498039086010BDAE
:1008300088ED00E000380240FFFFF6FE1030002493
:1008400030B58BB004460D4601214804FFF7A2FEE7
:1008500001210220FFF77EFE032208212248FFF734
:1008600007FE02208DF81C0000208DF81E004FF4BA
:100870008070069001208DF81F0003208DF81D0068
:1008800006A91948FFF7ACFD4FF480711648FFF731
:1008900012FEA8B2ADF820000020ADF822000994A5
:1008A000ADF828008DF82A0008A9104800F05CF97E
:1008B0006020ADF804000120ADF806000020ADF87E
:1008C000100001A9094800F0FBF80821074800F0D2
:1008D0003EF90121054800F0D2F80121034800F05B
:1008E000BFF80BB030BD00000004024000440140DE
:1008F00010B52048007800F08000A8BB02211E48F7
:1009000000F0CCF801282FD11A48007800F0400000
:1009100078B11848007840F08000164908701648F1
:1009200000F0B9F8154908600021134800F006F9F5
:100930001AE000200F490870104908600D4800783F
:1009400040F040000B49087000210B4800F097F878
:100950000021094800F006F90221074800F0EEF8EE
:100960000121054800F08BF80321034800F084F8CA
:1009700010BD000038000020000400403C000020B2
:1009800010B50121094800F089F868B108480088CD
:1009900040F40040064908800121044800F06CF84A
:1009A0000021024800F06BF810BD00000014004068
:1009B0004000002030B58BB004460D4601210804EC
:1009C000FFF7E8FD01211020FFF7C4FD03220521F8
:1009D0002148FFF74DFD02208DF81C0000208DF806
:1009E0001E002020069001208DF81F0003208DF8A6
:1009F0001D0006A91848FFF7F3FC20211648FFF751
:100A00005AFDA8B2ADF820000020ADF822000994EC
:100A1000ADF828008DF82A0008A9104800F0A4F8C5
:100A20006020ADF804000120ADF806000020ADF80C
:100A3000100001A9094800F043F80821074800F018
:100A400086F80121054800F01AF80121034800F05A
:100A500007F80BB030BD000000100240004001401C
:100A600021B1028842F08002028004E002884FF641
:100A70007F731A4002807047CA430282704721B1D7
:100A8000028842F00102028004E002884FF6FE7301
:100A90001A40028070470146486B704730B50246E5
:100AA000002000230024158A05EA0103958905EA40
:100AB000010413B10CB1012000E0002030BD0000A2
:100AC00070B5002400220023058C4FF6FE763540D9
:100AD0000584028C8388048B4FF68F752C40B51EDD
:100AE0002C400D882C43751E2A408D892A434D8841
:100AF0002A43104DA84202D00F4DA84213D14FF601
:100B0000F7752A40CD892A434FF6FB752A408D8818
:100B10002A434FF6FF652B404FF6FF552B400D8AB9
:100B20002B434D8A2B43838004838D684563028465
:100B300070BD000000000140000401400A46002191
:100B4000018C4FF6FD7319401143018470470A462A
:100B50000021018B4FF6F773194011430183704751
:100B6000416370474162704700220288184B9842E7
:100B70000ED0184B98420BD0B0F1804F08D0164BD6
:100B8000984205D0154B984202D0154B984204D19B
:100B90004FF68F731A404B881A43124B984207D076
:100BA000114B984204D04FF6FF431A400B891A4369
:100BB00002804B68C3620B880385054B984202D0C4
:100BC000044B984201D18B7A0386012383827047BC
:100BD0000000014000040140000400400008004003
:100BE000000C0040001000400014004010B51B48ED
:100BF000008800F0080010B118488088C4B240F2A4
:100C00002551164800F00EF950B140F22551134815
:100C100000F064F811488088C4B2204600F0F0F972
:100C200040F227710D4800F0FDF8A8B10C4801789A
:100C30000078401C0A4A10700A48405C07498880C6
:100C40001046007808490978884205D10348808910
:100C500020F080000149888110BD00000010014093
:100C600004000020440000200500002010B540F2E0
:100C70002551164800F0D6F800B3144800F08CF95E
:100C8000C4B21348008800F40040B8B91048008886
:100C9000B0F5C87F13DA00210E48FFF763FF0C4858
:100CA000008818B901210B48FFF7E9FE08480188C0
:100CB0000088401C064A10800748445405E0044858
:100CC000008840F400400249088010BD0048004000
:100CD00040000020001400403803002010B500221E
:100CE000002340F66A14A14200D100BF0A12012479
:100CF0009440A3B2DC43048010BD10B5024600202E
:100D0000108A20F470600B884C8823438C8823431E
:100D1000CC8823431843108210BD21B1828942F44C
:100D20000052828104E082894DF6FF731A4082816D
:100D30007047000010B504463248844208D10121B2
:100D40001020FFF737FC00211020FFF733FC57E09D
:100D50002D48844209D101214804FFF70BFC0021F2
:100D60004FF40030FFF706FC4AE02848844209D1DE
:100D700001218804FFF7FEFB00214FF48020FFF7DC
:100D8000F9FB3DE02248844209D10121C804FFF764
:100D9000F1FB00214FF40020FFF7ECFB30E01D4891
:100DA000844209D101210805FFF7E4FB00214FF43B
:100DB0008010FFF7DFFB23E01748844208D10121B0
:100DC0002020FFF7F7FB00212020FFF7F3FB17E0BF
:100DD0001248844209D101218807FFF7CBFB00218B
:100DE0004FF08040FFF7C6FB0AE00D48844207D170
:100DF00001214005FFF7BEFB00216005FFF7BAFBAC
:100E000010BD0000001001400044004000480040B8
:100E1000004C0040005000400014014000780040A9
:100E2000007C004070B5024600240023002500200D
:100E300040F66A16B14200D100BFC1F3421501F07D
:100E40001F03012606FA03F3012D02D196893340D0
:100E500006E0022D02D1168A334001E0968A334023
:100E60000C12012606FA04F41688344013B10CB1B2
:100E7000012000E0002070BDF0B5034600240026EC
:100E80000025002040F66A17B94200D100BF18467D
:100E9000C1F3421401F01F06012707FA06F5012CE1
:100EA00001D10C3004E0022C01D1103000E01430EC
:100EB0001AB107682F43076002E00768AF43076075
:100EC000F0BD00002DE9FF4705460E460024A1466F
:100ED00000BFA046B08900B100BF2C8A24F4405462
:100EE000F08804432C82AC8941F20C608443B088C2
:100EF00031890843718908430443AC81AC8A24F4E6
:100F00004074B0890443AC826846FFF763FB204815
:100F1000854202D01F48854202D1DDF80C9001E0E5
:100F2000DDF80890A88900F4004040B109EBC90041
:100F300000EB091031684900B0FBF1F707E009EB5D
:100F4000C90000EB091031688900B0FBF1F764209B
:100F5000B7FBF0F004012009642101FB1078A88997
:100F600000F4004040B1322000EBC800B0FBF1F0CB
:100F700000F00700044308E0322000EB0810642171
:100F8000B0FBF1F000F00F0004432C81BDE8FF87B7
:100F9000001001400014014001468888C0F3080099
:100FA00070474FF41651016000218180C18001819A
:100FB0000C21418100218181704700BFFEE700BF05
:100FC0007047000010B504466FF00400FFF7EEFB19
:100FD000E11704EB5171C1F3C701074A11701046C4
:100FE000007800EB4001C1EBC0104FF6FF7101EA41
:100FF000C0000249088010BD3200002034000020EB
:10100000782803D10121704A117048E0612807D186
:101010006D490978012903D104216B4A11703EE022
:10102000622807D168490978012903D10221664A5B
:10103000117034E06449097804290AD163490870C1
:101040000521614A117062490978491C604A117092
:1010500025E05D49097802290AD15C49087003211D
:10106000594A11705B490978491C5A4A117016E0B7
:1010700055490978052907D1574908705449097815
:10108000491C534A11700AE04F490978032906D1D7
:10109000514908704F490978491C4E4A11704C4912
:1010A000097802290CD14C490978484A127841EA5A
:1010B00002214A4A11800021454A1170424A1170AA
:1010C0004449097802290CD1434909783F4A1278EA
:1010D00041EA0221424A118000213E4A11703A4AF7
:1010E0001170792803D101213E4A117048E063282C
:1010F00007D13C490978012903D10421394A1170EB
:101100003EE0642807D137490978012903D102213B
:10111000344A117034E03349097804290AD132493C
:10112000087005212F4A117030490978491C2F4A4F
:10113000117025E02B49097802290AD12A49087043
:101140000321284A11702A490978491C284A11703C
:1011500016E024490978052907D126490870234952
:101160000978491C214A11700AE01E4909780329AF
:1011700006D1204908701E490978491C1C4A117083
:101180001A49097802290CD11A490978164A1278A5
:1011900041EA0221184A11800021144A1170114AB3
:1011A00011701349097802290CD1124909780E4AA5
:1011B000127841EA0221114A118000210C4A117073
:1011C000084A117070470000180000200800002035
:1011D0001500002014000020090000200C00002051
:1011E0000E000020190000200A0000201600002038
:1011F000170000200B00002010000020120000202B
:1012000040F6B83540F6AC5400BF00BF00BF00BF89
:1012100000BF00BF00BF00BFFFF7DEFA3548FFF791
:101220005FF8A820FFF7CEFE4FF4A060FFF786F925
:10123000532149F63F40FFF7BDFB532149F63F409C
:10124000FFF7FEFA29462C48FFF78AFC21462B4877
:10125000FFF786FC4DE02A48008800280FDD00BF1C
:10126000143541F25630854200DD054629462248B4
:10127000FFF776FC00BF00202149088012E02148DA
:10128000008800280EDD00BF143D40F21A40854260
:1012900000DA054629461848FFF762FC00BF002027
:1012A000184908801848008800280FDD00BF0A3C54
:1012B00040F6B830844200DA044621460F48FFF772
:1012C0004FFC00BF00201049088012E00F48008842
:1012D00000280EDD00BF0A34B4F57A6F01DD4FF44B
:1012E0007A6421460548FFF73BFC00BF0020074910
:1012F0000880B0E720A10700004001400044014001
:101300000C0000200E000020100000201200002021
:101310004FF04070E1EE100A704700003C130008E7
:101320000000002044000000C401000880130008F1
:1013300044000020E40A0000E00100080000000072
:10134000000000000000000000000000000000009D
:10135000000000000000000000000000000000008D
:10136000000001020304010203040607080900004B
:10137000000000000000000000000000000000006D
:040000050800018965
:00000001FF
